{
  "contractName": "BlackJack",
  "abi": [
    {
      "inputs": [],
      "stateMutability": "nonpayable",
      "type": "constructor"
    },
    {
      "anonymous": false,
      "inputs": [
        {
          "indexed": true,
          "internalType": "address",
          "name": "Player",
          "type": "address"
        }
      ],
      "name": "AfterCashOutEvent",
      "type": "event"
    },
    {
      "anonymous": false,
      "inputs": [
        {
          "indexed": true,
          "internalType": "uint256",
          "name": "GameId",
          "type": "uint256"
        },
        {
          "indexed": true,
          "internalType": "address",
          "name": "Player",
          "type": "address"
        },
        {
          "indexed": true,
          "internalType": "uint256",
          "name": "Amount",
          "type": "uint256"
        }
      ],
      "name": "BeforeCashOutEvent",
      "type": "event"
    },
    {
      "anonymous": false,
      "inputs": [
        {
          "indexed": true,
          "internalType": "uint256",
          "name": "GameId",
          "type": "uint256"
        },
        {
          "indexed": true,
          "internalType": "address",
          "name": "Player",
          "type": "address"
        },
        {
          "indexed": true,
          "internalType": "uint256",
          "name": "Amount",
          "type": "uint256"
        }
      ],
      "name": "CashOutEvent",
      "type": "event"
    },
    {
      "anonymous": false,
      "inputs": [
        {
          "indexed": true,
          "internalType": "uint256",
          "name": "GameId",
          "type": "uint256"
        },
        {
          "indexed": true,
          "internalType": "address",
          "name": "Player",
          "type": "address"
        },
        {
          "indexed": true,
          "internalType": "uint256",
          "name": "Amount",
          "type": "uint256"
        }
      ],
      "name": "NewGameEvent",
      "type": "event"
    },
    {
      "stateMutability": "nonpayable",
      "type": "fallback"
    },
    {
      "stateMutability": "payable",
      "type": "receive",
      "payable": true
    },
    {
      "inputs": [],
      "name": "NewGame",
      "outputs": [],
      "stateMutability": "payable",
      "type": "function",
      "payable": true
    },
    {
      "inputs": [],
      "name": "Hit",
      "outputs": [],
      "stateMutability": "nonpayable",
      "type": "function"
    },
    {
      "inputs": [],
      "name": "Stand",
      "outputs": [],
      "stateMutability": "nonpayable",
      "type": "function"
    },
    {
      "inputs": [
        {
          "internalType": "uint256",
          "name": "bet",
          "type": "uint256"
        }
      ],
      "name": "PlaceBet",
      "outputs": [],
      "stateMutability": "nonpayable",
      "type": "function"
    },
    {
      "inputs": [],
      "name": "CashOut",
      "outputs": [],
      "stateMutability": "nonpayable",
      "type": "function"
    },
    {
      "inputs": [],
      "name": "GetGame",
      "outputs": [
        {
          "components": [
            {
              "internalType": "uint256",
              "name": "Id",
              "type": "uint256"
            },
            {
              "internalType": "address",
              "name": "Player",
              "type": "address"
            },
            {
              "internalType": "uint256",
              "name": "PlayerBet",
              "type": "uint256"
            },
            {
              "internalType": "uint8[]",
              "name": "PlayerHand",
              "type": "uint8[]"
            },
            {
              "internalType": "uint8",
              "name": "PlayerCardTotal",
              "type": "uint8"
            },
            {
              "internalType": "uint8[]",
              "name": "DealerHand",
              "type": "uint8[]"
            },
            {
              "internalType": "uint8",
              "name": "DealerCardTotal",
              "type": "uint8"
            },
            {
              "internalType": "uint256",
              "name": "SafeBalance",
              "type": "uint256"
            },
            {
              "internalType": "uint256",
              "name": "OriginalBalance",
              "type": "uint256"
            },
            {
              "internalType": "uint256",
              "name": "GamesPlayed",
              "type": "uint256"
            },
            {
              "internalType": "uint8",
              "name": "PlayerAce",
              "type": "uint8"
            },
            {
              "internalType": "uint8",
              "name": "DealerAce",
              "type": "uint8"
            },
            {
              "internalType": "bool",
              "name": "IsRoundInProgress",
              "type": "bool"
            },
            {
              "internalType": "string",
              "name": "GameMsg",
              "type": "string"
            }
          ],
          "internalType": "struct BlackJack.Game",
          "name": "game",
          "type": "tuple"
        }
      ],
      "stateMutability": "view",
      "type": "function",
      "constant": true
    },
    {
      "inputs": [],
      "name": "ShowTable",
      "outputs": [
        {
          "internalType": "string",
          "name": "GameMessage",
          "type": "string"
        },
        {
          "internalType": "uint8[]",
          "name": "PlayerHand",
          "type": "uint8[]"
        },
        {
          "internalType": "uint8",
          "name": "PlayerCardTotal",
          "type": "uint8"
        },
        {
          "internalType": "uint8[]",
          "name": "DealerHand",
          "type": "uint8[]"
        },
        {
          "internalType": "uint8",
          "name": "DealerCardTotal",
          "type": "uint8"
        },
        {
          "internalType": "uint256",
          "name": "PlayerBet",
          "type": "uint256"
        },
        {
          "internalType": "uint256",
          "name": "BetPot",
          "type": "uint256"
        }
      ],
      "stateMutability": "view",
      "type": "function",
      "constant": true
    }
  ],
  "bytecode": "0x60a0604052604051806101a00160405280600b60ff168152602001600260ff168152602001600360ff168152602001600460ff168152602001600560ff168152602001600660ff168152602001600760ff168152602001600860ff168152602001600960ff168152602001600a60ff168152602001600a60ff168152602001600a60ff168152602001600a60ff16815250600490600d620000a2929190620000fa565b50348015620000b057600080fd5b506001600081905550600180819055503373ffffffffffffffffffffffffffffffffffffffff1660808173ffffffffffffffffffffffffffffffffffffffff1681525050620001ba565b82600d601f01602090048101928215620001885791602002820160005b838211156200015757835183826101000a81548160ff021916908360ff160217905550926020019260010160208160000104928301926001030262000117565b8015620001865782816101000a81549060ff021916905560010160208160000104928301926001030262000157565b505b5090506200019791906200019b565b5090565b5b80821115620001b65760008160009055506001016200019c565b5090565b608051614171620001d3600039600050506141716000f3fe6080604052600436106100745760003560e01c80635a6d41a01161004e5780635a6d41a0146102145780637ce2974d1461023d5780639ad01e3e1461026e578063a1e564b11461029957610124565b8063097e83b5146101dc57806339ae2133146101e657806358c5a7cc146101fd57610124565b3661012457600073ffffffffffffffffffffffffffffffffffffffff163373ffffffffffffffffffffffffffffffffffffffff1614156100e9576040517f08c379a00000000000000000000000000000000000000000000000000000000081526004016100e0906133d2565b60405180910390fd5b6040517f08c379a000000000000000000000000000000000000000000000000000000000815260040161011b90613464565b60405180910390fd5b34801561013057600080fd5b50600073ffffffffffffffffffffffffffffffffffffffff163373ffffffffffffffffffffffffffffffffffffffff1614156101a1576040517f08c379a0000000000000000000000000000000000000000000000000000000008152600401610198906133d2565b60405180910390fd5b6040517f08c379a00000000000000000000000000000000000000000000000000000000081526004016101d3906134d0565b60405180910390fd5b6101e46102b0565b005b3480156101f257600080fd5b506101fb610695565b005b34801561020957600080fd5b50610212610b5e565b005b34801561022057600080fd5b5061023b6004803603810190610236919061352b565b61152a565b005b34801561024957600080fd5b506102526117dc565b60405161026597969594939291906136c9565b60405180910390f35b34801561027a57600080fd5b50610283611b2a565b60405161029091906139ad565b60405180910390f35b3480156102a557600080fd5b506102ae611e3a565b005b6000600260003373ffffffffffffffffffffffffffffffffffffffff1673ffffffffffffffffffffffffffffffffffffffff1681526020019081526020016000205414610332576040517f08c379a000000000000000000000000000000000000000000000000000000000815260040161032990613a1b565b60405180910390fd5b64e8d4a510003411801561034e5750678ac7230489e800003411155b61038d576040517f08c379a000000000000000000000000000000000000000000000000000000000815260040161038490613aad565b60405180910390fd5b610395613130565b600154816000018181525050348160e0018181516103b39190613afc565b915081815250503481610100018181516103cd9190613afc565b9150818152505033816020019073ffffffffffffffffffffffffffffffffffffffff16908173ffffffffffffffffffffffffffffffffffffffff16815250506040518060400160405280600e81526020017f436f6e747261637420506169642e000000000000000000000000000000000000815250816101a001819052506001600081548092919061045e90613b52565b91905055508060036000836000015181526020019081526020016000206000820151816000015560208201518160010160006101000a81548173ffffffffffffffffffffffffffffffffffffffff021916908373ffffffffffffffffffffffffffffffffffffffff1602179055506040820151816002015560608201518160030190805190602001906104f29291906131c3565b5060808201518160040160006101000a81548160ff021916908360ff16021790555060a08201518160050190805190602001906105309291906131c3565b5060c08201518160060160006101000a81548160ff021916908360ff16021790555060e082015181600701556101008201518160080155610120820151816009015561014082015181600a0160006101000a81548160ff021916908360ff16021790555061016082015181600a0160016101000a81548160ff021916908360ff16021790555061018082015181600a0160026101000a81548160ff0219169083151502179055506101a082015181600b0190805190602001906105f492919061326a565b509050508060000151600260003373ffffffffffffffffffffffffffffffffffffffff1673ffffffffffffffffffffffffffffffffffffffff16815260200190815260200160002081905550806101000151816020015173ffffffffffffffffffffffffffffffffffffffff1682600001517fba20ceffdbfaa396bbc768b961183b9e879ba9fdf57913b9027450bd13f72f8160405160405180910390a450565b600073ffffffffffffffffffffffffffffffffffffffff163373ffffffffffffffffffffffffffffffffffffffff161415610705576040517f08c379a00000000000000000000000000000000000000000000000000000000081526004016106fc906133d2565b60405180910390fd5b6000600260003373ffffffffffffffffffffffffffffffffffffffff1673ffffffffffffffffffffffffffffffffffffffff168152602001908152602001600020541415610788576040517f08c379a000000000000000000000000000000000000000000000000000000000815260040161077f90613be7565b60405180910390fd5b600060036000600260003373ffffffffffffffffffffffffffffffffffffffff1673ffffffffffffffffffffffffffffffffffffffff168152602001908152602001600020548152602001908152602001600020905080600a0160029054906101000a900460ff1661082f576040517f08c379a000000000000000000000000000000000000000000000000000000000815260040161082690613c53565b60405180910390fd5b8060030161083b6123a7565b90806001815401808255809150506001900390600052602060002090602091828204019190069091909190916101000a81548160ff021916908360ff1602179055506000600d82600301600184600301805490506108999190613c73565b815481106108aa576108a9613ca7565b5b90600052602060002090602091828204019190069054906101000a900460ff166108d49190613d05565b60ff16141561091757600181600a0160008282829054906101000a900460ff166108fe9190613d36565b92506101000a81548160ff021916908360ff1602179055505b6004600d82600301600184600301805490506109339190613c73565b8154811061094457610943613ca7565b5b90600052602060002090602091828204019190069054906101000a900460ff1661096e9190613d05565b60ff16600d811061098257610981613ca7565b5b602091828204019190069054906101000a900460ff168160040160008282829054906101000a900460ff166109b79190613d36565b92506101000a81548160ff021916908360ff16021790555060158160040160009054906101000a900460ff1660ff16118015610a075750600181600a0160009054906101000a900460ff1660ff16105b15610a7c576040518060400160405280600c81526020017f506c6179657220427573742e000000000000000000000000000000000000000081525081600b019080519060200190610a5992919061326a565b50600081600a0160026101000a81548160ff021916908315150217905550610b5b565b60158160040160009054906101000a900460ff1660ff161115610b0c57600a8160040160008282829054906101000a900460ff16610aba9190613d6d565b92506101000a81548160ff021916908360ff160217905550600181600a0160008282829054906101000a900460ff16610af39190613d6d565b92506101000a81548160ff021916908360ff1602179055505b6040518060400160405280600e81526020017f506c617965722773205475726e2e00000000000000000000000000000000000081525081600b019080519060200190610b5992919061326a565b505b50565b600073ffffffffffffffffffffffffffffffffffffffff163373ffffffffffffffffffffffffffffffffffffffff161415610bce576040517f08c379a0000000000000000000000000000000000000000000000000000000008152600401610bc5906133d2565b60405180910390fd5b6000600260003373ffffffffffffffffffffffffffffffffffffffff1673ffffffffffffffffffffffffffffffffffffffff168152602001908152602001600020541415610c51576040517f08c379a0000000000000000000000000000000000000000000000000000000008152600401610c4890613be7565b60405180910390fd5b600060036000600260003373ffffffffffffffffffffffffffffffffffffffff1673ffffffffffffffffffffffffffffffffffffffff168152602001908152602001600020548152602001908152602001600020905080600a0160029054906101000a900460ff16610cf8576040517f08c379a0000000000000000000000000000000000000000000000000000000008152600401610cef90613c53565b60405180910390fd5b80600501610d046123a7565b90806001815401808255809150506001900390600052602060002090602091828204019190069091909190916101000a81548160ff021916908360ff1602179055506000600d82600501600181548110610d6157610d60613ca7565b5b90600052602060002090602091828204019190069054906101000a900460ff16610d8b9190613d05565b60ff161415610dce57600181600a0160018282829054906101000a900460ff16610db59190613d36565b92506101000a81548160ff021916908360ff1602179055505b6004600d82600501600181548110610de957610de8613ca7565b5b90600052602060002090602091828204019190069054906101000a900460ff16610e139190613d05565b60ff16600d8110610e2757610e26613ca7565b5b602091828204019190069054906101000a900460ff168160060160008282829054906101000a900460ff16610e5c9190613d36565b92506101000a81548160ff021916908360ff1602179055505b60118160060160009054906101000a900460ff1660ff1610156110375780600501610e9e6123a7565b90806001815401808255809150506001900390600052602060002090602091828204019190069091909190916101000a81548160ff021916908360ff1602179055506000600d8260050160018460050180549050610efc9190613c73565b81548110610f0d57610f0c613ca7565b5b90600052602060002090602091828204019190069054906101000a900460ff16610f379190613d05565b60ff161415610f7a57600181600a0160018282829054906101000a900460ff16610f619190613d36565b92506101000a81548160ff021916908360ff1602179055505b6004600d8260050160018460050180549050610f969190613c73565b81548110610fa757610fa6613ca7565b5b90600052602060002090602091828204019190069054906101000a900460ff16610fd19190613d05565b60ff16600d8110610fe557610fe4613ca7565b5b602091828204019190069054906101000a900460ff168160060160008282829054906101000a900460ff1661101a9190613d36565b92506101000a81548160ff021916908360ff160217905550610e75565b60158160060160009054906101000a900460ff1660ff1611801561106f5750600181600a0160019054906101000a900460ff1660ff16105b1561110f576040518060400160405280601981526020017f4465616c657220427573742e20506c617965722057696e732e0000000000000081525081600b0190805190602001906110c192919061326a565b50600081600a0160026101000a81548160ff021916908315150217905550600281600201546110f09190613da1565b8160070160008282546111039190613afc565b92505081905550611527565b60158160060160009054906101000a900460ff1660ff1611156111a357600a8160060160008282829054906101000a900460ff1661114d9190613d6d565b92506101000a81548160ff021916908360ff160217905550600181600a0160018282829054906101000a900460ff166111869190613d6d565b92506101000a81548160ff021916908360ff160217905550611526565b60158160060160009054906101000a900460ff1660ff1614156112dd5760158160040160009054906101000a900460ff1660ff16141561126c576040518060400160405280600981526020017f5374616e644f666621000000000000000000000000000000000000000000000081525081600b01908051906020019061122a92919061326a565b50600081600a0160026101000a81548160ff02191690831515021790555080600201548160070160008282546112609190613afc565b925050819055506112d8565b6040518060400160405280600c81526020017f4465616c65722057696e732e000000000000000000000000000000000000000081525081600b0190805190602001906112b992919061326a565b50600081600a0160026101000a81548160ff0219169083151502179055505b611525565b60158160040160009054906101000a900460ff1660ff1610801561134057508060040160009054906101000a900460ff16601561131a9190613d6d565b60ff168160060160009054906101000a900460ff16601561133b9190613d6d565b60ff16145b156113d4576040518060400160405280600981526020017f5374616e644f666621000000000000000000000000000000000000000000000081525081600b01908051906020019061139292919061326a565b50600081600a0160026101000a81548160ff02191690831515021790555080600201548160070160008282546113c89190613afc565b92505081905550611524565b8060040160009054906101000a900460ff1660156113f29190613d6d565b60ff168160060160009054906101000a900460ff1660156114139190613d6d565b60ff16101561148c576040518060400160405280600c81526020017f4465616c65722057696e732e000000000000000000000000000000000000000081525081600b01908051906020019061146992919061326a565b50600081600a0160026101000a81548160ff021916908315150217905550611523565b6040518060400160405280600c81526020017f506c617965722057696e732e000000000000000000000000000000000000000081525081600b0190805190602001906114d992919061326a565b50600081600a0160026101000a81548160ff021916908315150217905550600281600201546115089190613da1565b81600701600082825461151b9190613afc565b925050819055505b5b5b5b5b50565b600073ffffffffffffffffffffffffffffffffffffffff163373ffffffffffffffffffffffffffffffffffffffff16141561159a576040517f08c379a0000000000000000000000000000000000000000000000000000000008152600401611591906133d2565b60405180910390fd5b6000600260003373ffffffffffffffffffffffffffffffffffffffff1673ffffffffffffffffffffffffffffffffffffffff16815260200190815260200160002054141561161d576040517f08c379a000000000000000000000000000000000000000000000000000000000815260040161161490613be7565b60405180910390fd5b600060036000600260003373ffffffffffffffffffffffffffffffffffffffff1673ffffffffffffffffffffffffffffffffffffffff168152602001908152602001600020548152602001908152602001600020905080600a0160029054906101000a900460ff16156116c5576040517f08c379a00000000000000000000000000000000000000000000000000000000081526004016116bc90613e47565b60405180910390fd5b64174876e80082101580156116e25750670de0b6b3a76400008211155b611721576040517f08c379a000000000000000000000000000000000000000000000000000000000815260040161171890613ed9565b60405180910390fd5b600082118015611735575080600701548211155b611774576040517f08c379a000000000000000000000000000000000000000000000000000000000815260040161176b90613f45565b60405180910390fd5b818160070160008282546117889190613c73565b92505081905550818160020181905550600181600a0160026101000a81548160ff0219169083151502179055508060090160008154809291906117ca90613b52565b91905055506117d881612432565b5050565b6060806000606060008060008060036000600260003373ffffffffffffffffffffffffffffffffffffffff1673ffffffffffffffffffffffffffffffffffffffff168152602001908152602001600020548152602001908152602001600020604051806101c0016040529081600082015481526020016001820160009054906101000a900473ffffffffffffffffffffffffffffffffffffffff1673ffffffffffffffffffffffffffffffffffffffff1673ffffffffffffffffffffffffffffffffffffffff168152602001600282015481526020016003820180548060200260200160405190810160405280929190818152602001828054801561192657602002820191906000526020600020906000905b82829054906101000a900460ff1660ff16815260200190600101906020826000010492830192600103820291508084116118ef5790505b505050505081526020016004820160009054906101000a900460ff1660ff1660ff168152602001600582018054806020026020016040519081016040528092919081815260200182805480156119c157602002820191906000526020600020906000905b82829054906101000a900460ff1660ff168152602001906001019060208260000104928301926001038202915080841161198a5790505b505050505081526020016006820160009054906101000a900460ff1660ff1660ff168152602001600782015481526020016008820154815260200160098201548152602001600a820160009054906101000a900460ff1660ff1660ff168152602001600a820160019054906101000a900460ff1660ff1660ff168152602001600a820160029054906101000a900460ff16151515158152602001600b82018054611a6a90613f94565b80601f0160208091040260200160405190810160405280929190818152602001828054611a9690613f94565b8015611ae35780601f10611ab857610100808354040283529160200191611ae3565b820191906000526020600020905b815481529060010190602001808311611ac657829003601f168201915b5050505050815250509050806101a00151975080606001519650806080015195508060a0015194508060c001519350806040015192508060e0015191505090919293949596565b611b32613130565b60036000600260003373ffffffffffffffffffffffffffffffffffffffff1673ffffffffffffffffffffffffffffffffffffffff168152602001908152602001600020548152602001908152602001600020604051806101c0016040529081600082015481526020016001820160009054906101000a900473ffffffffffffffffffffffffffffffffffffffff1673ffffffffffffffffffffffffffffffffffffffff1673ffffffffffffffffffffffffffffffffffffffff1681526020016002820154815260200160038201805480602002602001604051908101604052809291908181526020018280548015611c6f57602002820191906000526020600020906000905b82829054906101000a900460ff1660ff1681526020019060010190602082600001049283019260010382029150808411611c385790505b505050505081526020016004820160009054906101000a900460ff1660ff1660ff16815260200160058201805480602002602001604051908101604052809291908181526020018280548015611d0a57602002820191906000526020600020906000905b82829054906101000a900460ff1660ff1681526020019060010190602082600001049283019260010382029150808411611cd35790505b505050505081526020016006820160009054906101000a900460ff1660ff1660ff168152602001600782015481526020016008820154815260200160098201548152602001600a820160009054906101000a900460ff1660ff1660ff168152602001600a820160019054906101000a900460ff1660ff1660ff168152602001600a820160029054906101000a900460ff16151515158152602001600b82018054611db390613f94565b80601f0160208091040260200160405190810160405280929190818152602001828054611ddf90613f94565b8015611e2c5780601f10611e0157610100808354040283529160200191611e2c565b820191906000526020600020905b815481529060010190602001808311611e0f57829003601f168201915b505050505081525050905090565b600073ffffffffffffffffffffffffffffffffffffffff163373ffffffffffffffffffffffffffffffffffffffff161415611eaa576040517f08c379a0000000000000000000000000000000000000000000000000000000008152600401611ea1906133d2565b60405180910390fd5b6000600260003373ffffffffffffffffffffffffffffffffffffffff1673ffffffffffffffffffffffffffffffffffffffff168152602001908152602001600020541415611f2d576040517f08c379a0000000000000000000000000000000000000000000000000000000008152600401611f2490613be7565b60405180910390fd5b600060036000600260003373ffffffffffffffffffffffffffffffffffffffff1673ffffffffffffffffffffffffffffffffffffffff168152602001908152602001600020548152602001908152602001600020604051806101c0016040529081600082015481526020016001820160009054906101000a900473ffffffffffffffffffffffffffffffffffffffff1673ffffffffffffffffffffffffffffffffffffffff1673ffffffffffffffffffffffffffffffffffffffff168152602001600282015481526020016003820180548060200260200160405190810160405280929190818152602001828054801561206c57602002820191906000526020600020906000905b82829054906101000a900460ff1660ff16815260200190600101906020826000010492830192600103820291508084116120355790505b505050505081526020016004820160009054906101000a900460ff1660ff1660ff1681526020016005820180548060200260200160405190810160405280929190818152602001828054801561210757602002820191906000526020600020906000905b82829054906101000a900460ff1660ff16815260200190600101906020826000010492830192600103820291508084116120d05790505b505050505081526020016006820160009054906101000a900460ff1660ff1660ff168152602001600782015481526020016008820154815260200160098201548152602001600a820160009054906101000a900460ff1660ff1660ff168152602001600a820160019054906101000a900460ff1660ff1660ff168152602001600a820160029054906101000a900460ff16151515158152602001600b820180546121b090613f94565b80601f01602080910402602001604051908101604052809291908181526020018280546121dc90613f94565b80156122295780601f106121fe57610100808354040283529160200191612229565b820191906000526020600020905b81548152906001019060200180831161220c57829003601f168201915b50505050508152505090508061018001511561227a576040517f08c379a000000000000000000000000000000000000000000000000000000000815260040161227190614012565b60405180910390fd5b60008160e0015190506000471015801561229757508160e0015147105b156122a0574790505b804710156122b1576122b0614032565b5b6122ba33612c47565b3373ffffffffffffffffffffffffffffffffffffffff166108fc829081150290604051600060405180830381858888f19350505050158015612300573d6000803e3d6000fd5b5061230a33612ec2565b6000600260003373ffffffffffffffffffffffffffffffffffffffff1673ffffffffffffffffffffffffffffffffffffffff168152602001908152602001600020541461235a57612359614032565b5b803373ffffffffffffffffffffffffffffffffffffffff1683600001517f250efcb6be2a0ac5605d1cf71328b5851470f02f783ce2df316489c41ba96edd60405160405180910390a45050565b600060036000808282546123bb9190613da1565b92505081905550603442406000546040516020016123da9291906140ad565b6040516020818303038152906040528051906020012060001c6123fd91906140d9565b905060008081548092919061241190613b52565b9190505550630134b174600054111561242f578060ff166000819055505b90565b80600301600061244291906132f0565b60008160040160006101000a81548160ff021916908360ff16021790555080600501600061247091906132f0565b60008160060160006101000a81548160ff021916908360ff160217905550600081600a0160006101000a81548160ff021916908360ff160217905550600081600a0160016101000a81548160ff021916908360ff160217905550806003016124d66123a7565b90806001815401808255809150506001900390600052602060002090602091828204019190069091909190916101000a81548160ff021916908360ff160217905550806005016125246123a7565b90806001815401808255809150506001900390600052602060002090602091828204019190069091909190916101000a81548160ff021916908360ff1602179055506000600d8260030160008154811061258157612580613ca7565b5b90600052602060002090602091828204019190069054906101000a900460ff166125ab9190613d05565b60ff1614156125ee57600181600a0160008282829054906101000a900460ff166125d59190613d36565b92506101000a81548160ff021916908360ff1602179055505b6000600d8260050160008154811061260957612608613ca7565b5b90600052602060002090602091828204019190069054906101000a900460ff166126339190613d05565b60ff16141561267657600181600a0160018282829054906101000a900460ff1661265d9190613d36565b92506101000a81548160ff021916908360ff1602179055505b806003016126826123a7565b90806001815401808255809150506001900390600052602060002090602091828204019190069091909190916101000a81548160ff021916908360ff1602179055506000600d826003016001815481106126df576126de613ca7565b5b90600052602060002090602091828204019190069054906101000a900460ff166127099190613d05565b60ff16141561274c57600181600a0160008282829054906101000a900460ff166127339190613d36565b92506101000a81548160ff021916908360ff1602179055505b6004600d8260030160018154811061276757612766613ca7565b5b90600052602060002090602091828204019190069054906101000a900460ff166127919190613d05565b60ff16600d81106127a5576127a4613ca7565b5b602091828204019190069054906101000a900460ff166004600d836003016000815481106127d6576127d5613ca7565b5b90600052602060002090602091828204019190069054906101000a900460ff166128009190613d05565b60ff16600d811061281457612813613ca7565b5b602091828204019190069054906101000a900460ff166128349190613d36565b8160040160006101000a81548160ff021916908360ff1602179055506004600d8260050160008154811061286b5761286a613ca7565b5b90600052602060002090602091828204019190069054906101000a900460ff166128959190613d05565b60ff16600d81106128a9576128a8613ca7565b5b602091828204019190069054906101000a900460ff168160060160006101000a81548160ff021916908360ff16021790555060158160040160009054906101000a900460ff1660ff161180156129135750600081600a0160009054906101000a900460ff1660ff16115b1561298b57600a8160040160008282829054906101000a900460ff166129399190613d6d565b92506101000a81548160ff021916908360ff160217905550600181600a0160008282829054906101000a900460ff166129729190613d6d565b92506101000a81548160ff021916908360ff1602179055505b60158160040160009054906101000a900460ff1660ff161415612bf557806005016129b46123a7565b90806001815401808255809150506001900390600052602060002090602091828204019190069091909190916101000a81548160ff021916908360ff1602179055506004600d82600501600181548110612a1157612a10613ca7565b5b90600052602060002090602091828204019190069054906101000a900460ff16612a3b9190613d05565b60ff16600d8110612a4f57612a4e613ca7565b5b602091828204019190069054906101000a900460ff168160060160008282829054906101000a900460ff16612a849190613d36565b92506101000a81548160ff021916908360ff1602179055508060040160009054906101000a900460ff1660ff168160060160009054906101000a900460ff1660ff161415612b3e576040518060400160405280600981526020017f5374616e644f666621000000000000000000000000000000000000000000000081525081600b019080519060200190612b1992919061326a565b508060020154816007016000828254612b329190613afc565b92505081905550612bd3565b6040518060400160405280601781526020017f426c61636b4a61636b2120506c617965722057696e732e00000000000000000081525081600b019080519060200190612b8b92919061326a565b5060028160020154612b9d919061410a565b60028260020154612bae9190613da1565b612bb89190613afc565b816007016000828254612bcb9190613afc565b925050819055505b600081600a0160026101000a81548160ff021916908315150217905550612c44565b6040518060400160405280600e81526020017f506c617965722773205475726e2e00000000000000000000000000000000000081525081600b019080519060200190612c4292919061326a565b505b50565b600060036000600260008573ffffffffffffffffffffffffffffffffffffffff1673ffffffffffffffffffffffffffffffffffffffff168152602001908152602001600020548152602001908152602001600020600001549050600060036000600260008673ffffffffffffffffffffffffffffffffffffffff1673ffffffffffffffffffffffffffffffffffffffff1681526020019081526020016000205481526020019081526020016000206007015490506000600260008573ffffffffffffffffffffffffffffffffffffffff1673ffffffffffffffffffffffffffffffffffffffff1681526020019081526020016000208190555060036000600260008673ffffffffffffffffffffffffffffffffffffffff1673ffffffffffffffffffffffffffffffffffffffff1681526020019081526020016000205481526020019081526020016000206000808201600090556001820160006101000a81549073ffffffffffffffffffffffffffffffffffffffff02191690556002820160009055600382016000612dda91906132f0565b6004820160006101000a81549060ff0219169055600582016000612dfe91906132f0565b6006820160006101000a81549060ff0219169055600782016000905560088201600090556009820160009055600a820160006101000a81549060ff0219169055600a820160016101000a81549060ff0219169055600a820160026101000a81549060ff0219169055600b82016000612e769190613318565b5050808373ffffffffffffffffffffffffffffffffffffffff16837f0e4c3e803dc37608df66011032f66976b0d527eea163a2054f7a49484bac658160405160405180910390a4505050565b6000600260008373ffffffffffffffffffffffffffffffffffffffff1673ffffffffffffffffffffffffffffffffffffffff16815260200190815260200160002054141580612f675750600060036000600260008573ffffffffffffffffffffffffffffffffffffffff1673ffffffffffffffffffffffffffffffffffffffff1681526020019081526020016000205481526020019081526020016000206007015414155b156130ea576000600260008373ffffffffffffffffffffffffffffffffffffffff1673ffffffffffffffffffffffffffffffffffffffff1681526020019081526020016000208190555060036000600260008473ffffffffffffffffffffffffffffffffffffffff1673ffffffffffffffffffffffffffffffffffffffff1681526020019081526020016000205481526020019081526020016000206000808201600090556001820160006101000a81549073ffffffffffffffffffffffffffffffffffffffff0219169055600282016000905560038201600061304b91906132f0565b6004820160006101000a81549060ff021916905560058201600061306f91906132f0565b6006820160006101000a81549060ff0219169055600782016000905560088201600090556009820160009055600a820160006101000a81549060ff0219169055600a820160016101000a81549060ff0219169055600a820160026101000a81549060ff0219169055600b820160006130e79190613318565b50505b8073ffffffffffffffffffffffffffffffffffffffff167f25d9abea3762a2adb909a6bbda33c5ff688809aae0e263b9f1a4aef66ae5996f60405160405180910390a250565b604051806101c0016040528060008152602001600073ffffffffffffffffffffffffffffffffffffffff1681526020016000815260200160608152602001600060ff16815260200160608152602001600060ff168152602001600081526020016000815260200160008152602001600060ff168152602001600060ff168152602001600015158152602001606081525090565b82805482825590600052602060002090601f016020900481019282156132595791602002820160005b8382111561322a57835183826101000a81548160ff021916908360ff16021790555092602001926001016020816000010492830192600103026131ec565b80156132575782816101000a81549060ff021916905560010160208160000104928301926001030261322a565b505b5090506132669190613358565b5090565b82805461327690613f94565b90600052602060002090601f01602090048101928261329857600085556132df565b82601f106132b157805160ff19168380011785556132df565b828001600101855582156132df579182015b828111156132de5782518255916020019190600101906132c3565b5b5090506132ec9190613358565b5090565b50805460008255601f0160209004906000526020600020908101906133159190613358565b50565b50805461332490613f94565b6000825580601f106133365750613355565b601f0160209004906000526020600020908101906133549190613358565b5b50565b5b80821115613371576000816000905550600101613359565b5090565b600082825260208201905092915050565b7f4572726f723a204164647265737320696e76616c69642e000000000000000000600082015250565b60006133bc601783613375565b91506133c782613386565b602082019050919050565b600060208201905081810360008301526133eb816133af565b9050919050565b7f506c65617365207374617274206e65772067616d6520284e657747616d65206660008201527f756e6374696f6e2920746f2070617920636f6e74726163742e00000000000000602082015250565b600061344e603983613375565b9150613459826133f2565b604082019050919050565b6000602082019050818103600083015261347d81613441565b9050919050565b7f5061796572206164647265737320696e617661696c61626c652e000000000000600082015250565b60006134ba601a83613375565b91506134c582613484565b602082019050919050565b600060208201905081810360008301526134e9816134ad565b9050919050565b600080fd5b6000819050919050565b613508816134f5565b811461351357600080fd5b50565b600081359050613525816134ff565b92915050565b600060208284031215613541576135406134f0565b5b600061354f84828501613516565b91505092915050565b600081519050919050565b60005b83811015613581578082015181840152602081019050613566565b83811115613590576000848401525b50505050565b6000601f19601f8301169050919050565b60006135b282613558565b6135bc8185613375565b93506135cc818560208601613563565b6135d581613596565b840191505092915050565b600081519050919050565b600082825260208201905092915050565b6000819050602082019050919050565b600060ff82169050919050565b6136228161360c565b82525050565b60006136348383613619565b60208301905092915050565b6000602082019050919050565b6000613658826135e0565b61366281856135eb565b935061366d836135fc565b8060005b8381101561369e5781516136858882613628565b975061369083613640565b925050600181019050613671565b5085935050505092915050565b6136b48161360c565b82525050565b6136c3816134f5565b82525050565b600060e08201905081810360008301526136e3818a6135a7565b905081810360208301526136f7818961364d565b905061370660408301886136ab565b8181036060830152613718818761364d565b905061372760808301866136ab565b61373460a08301856136ba565b61374160c08301846136ba565b98975050505050505050565b613756816134f5565b82525050565b600073ffffffffffffffffffffffffffffffffffffffff82169050919050565b60006137878261375c565b9050919050565b6137978161377c565b82525050565b600082825260208201905092915050565b60006137b9826135e0565b6137c3818561379d565b93506137ce836135fc565b8060005b838110156137ff5781516137e68882613628565b97506137f183613640565b9250506001810190506137d2565b5085935050505092915050565b60008115159050919050565b6138218161380c565b82525050565b600082825260208201905092915050565b600061384382613558565b61384d8185613827565b935061385d818560208601613563565b61386681613596565b840191505092915050565b60006101c08301600083015161388a600086018261374d565b50602083015161389d602086018261378e565b5060408301516138b0604086018261374d565b50606083015184820360608601526138c882826137ae565b91505060808301516138dd6080860182613619565b5060a083015184820360a08601526138f582826137ae565b91505060c083015161390a60c0860182613619565b5060e083015161391d60e086018261374d565b5061010083015161393261010086018261374d565b5061012083015161394761012086018261374d565b5061014083015161395c610140860182613619565b50610160830151613971610160860182613619565b50610180830151613986610180860182613818565b506101a08301518482036101a08601526139a08282613838565b9150508091505092915050565b600060208201905081810360008301526139c78184613871565b905092915050565b7f4572726f723a20506c6179657220616c726561647920696e20612067616d652e600082015250565b6000613a05602083613375565b9150613a10826139cf565b602082019050919050565b60006020820190508181036000830152613a34816139f8565b9050919050565b7f4572726f723a205265717569726520313030302047776569203c206465706f7360008201527f6974203c2031302045746865722e000000000000000000000000000000000000602082015250565b6000613a97602e83613375565b9150613aa282613a3b565b604082019050919050565b60006020820190508181036000830152613ac681613a8a565b9050919050565b7f4e487b7100000000000000000000000000000000000000000000000000000000600052601160045260246000fd5b6000613b07826134f5565b9150613b12836134f5565b9250827fffffffffffffffffffffffffffffffffffffffffffffffffffffffffffffffff03821115613b4757613b46613acd565b5b828201905092915050565b6000613b5d826134f5565b91507fffffffffffffffffffffffffffffffffffffffffffffffffffffffffffffffff821415613b9057613b8f613acd565b5b600182019050919050565b7f4572726f723a2047616d6520646f6573206e6f74206578697374732e00000000600082015250565b6000613bd1601c83613375565b9150613bdc82613b9b565b602082019050919050565b60006020820190508181036000830152613c0081613bc4565b9050919050565b7f417661696c61626c65206f6e20706c617965722773207475726e206f6e6c792e600082015250565b6000613c3d602083613375565b9150613c4882613c07565b602082019050919050565b60006020820190508181036000830152613c6c81613c30565b9050919050565b6000613c7e826134f5565b9150613c89836134f5565b925082821015613c9c57613c9b613acd565b5b828203905092915050565b7f4e487b7100000000000000000000000000000000000000000000000000000000600052603260045260246000fd5b7f4e487b7100000000000000000000000000000000000000000000000000000000600052601260045260246000fd5b6000613d108261360c565b9150613d1b8361360c565b925082613d2b57613d2a613cd6565b5b828206905092915050565b6000613d418261360c565b9150613d4c8361360c565b92508260ff03821115613d6257613d61613acd565b5b828201905092915050565b6000613d788261360c565b9150613d838361360c565b925082821015613d9657613d95613acd565b5b828203905092915050565b6000613dac826134f5565b9150613db7836134f5565b9250817fffffffffffffffffffffffffffffffffffffffffffffffffffffffffffffffff0483118215151615613df057613def613acd565b5b828202905092915050565b7f4572726f723a20526f756e6420696e2070726f67726573732e00000000000000600082015250565b6000613e31601983613375565b9150613e3c82613dfb565b602082019050919050565b60006020820190508181036000830152613e6081613e24565b9050919050565b7f4572726f723a2052657175697265203130302047576569203c20626574203c2060008201527f312045746865722e000000000000000000000000000000000000000000000000602082015250565b6000613ec3602883613375565b9150613ece82613e67565b604082019050919050565b60006020820190508181036000830152613ef281613eb6565b9050919050565b7f4572726f723a20496e73756666696369656e742066756e64732e000000000000600082015250565b6000613f2f601a83613375565b9150613f3a82613ef9565b602082019050919050565b60006020820190508181036000830152613f5e81613f22565b9050919050565b7f4e487b7100000000000000000000000000000000000000000000000000000000600052602260045260246000fd5b60006002820490506001821680613fac57607f821691505b60208210811415613fc057613fbf613f65565b5b50919050565b7f417661696c61626c65206f6e206e657720726f756e64206f6e6c792e00000000600082015250565b6000613ffc601c83613375565b915061400782613fc6565b602082019050919050565b6000602082019050818103600083015261402b81613fef565b9050919050565b7f4e487b7100000000000000000000000000000000000000000000000000000000600052600160045260246000fd5b6000819050919050565b6000819050919050565b61408661408182614061565b61406b565b82525050565b6000819050919050565b6140a76140a2826134f5565b61408c565b82525050565b60006140b98285614075565b6020820191506140c98284614096565b6020820191508190509392505050565b60006140e4826134f5565b91506140ef836134f5565b9250826140ff576140fe613cd6565b5b828206905092915050565b6000614115826134f5565b9150614120836134f5565b9250826141305761412f613cd6565b5b82820490509291505056fea26469706673582212201d72c97d4dd71795612898789604e2db7986fe41c149215d0d79e485521f56da64736f6c634300080c0033",
  "immutableReferences": {},
  "source": "// SPDX-License-Identifier: MIT\n// BlackJack.sol\n// BlackJack smart contract\npragma solidity >=0.8.12 <0.9.0;\n\nimport \"@openzeppelin/contracts/utils/math/SafeMath.sol\";\nimport \"@openzeppelin/contracts/utils/Strings.sol\";\n\n/**\n @title BlackJack\n A Blackjack game of smart contract, deploying to the blockchain.\n*/\ncontract BlackJack {\n    ////////// Basic variables and functions setups //////////\n    using SafeMath for uint256;\n\n    struct Game {\n        // identifiers\n        uint256 Id;\n        address Player;\n        // player states\n        uint256 PlayerBet;\n        uint8[] PlayerHand;\n        uint8 PlayerCardTotal;\n        // dealer states\n        uint8[] DealerHand;\n        uint8 DealerCardTotal;\n        // game states\n        uint256 SafeBalance;\n        uint256 OriginalBalance;\n        uint256 GamesPlayed;\n        //bool HasAce;\n        uint8 PlayerAce;\n        uint8 DealerAce;\n        bool IsRoundInProgress;\n        string GameMsg;\n    }\n\n    // cash related limits\n    uint256 constant private _ethDepLimit_Low = 1000 gwei;\n    uint256 constant private _ethDepLimit_High = 10 ether;\n    uint256 constant private _ethBetLimit_Low = 100 gwei;\n    uint256 constant private _ethBetLimit_High = 1 ether; // 1000000000000000000 wei\n\n    // game state vars\n    uint256 private _rngNonce;\n    uint256 private _indexCounter;\n    address immutable private _owner;\n    mapping(address => uint256) private _map_playerToGame;\n    mapping(uint256 => Game) private _map_idToGame;\n    uint8[13] cardValues = [11, 2, 3, 4, 5, 6, 7, 8, 9, 10, 10, 10, 10];\n\n    /**\n     Events that Log important states (start game, and cash out/transfer)\n    */\n    event NewGameEvent(uint256 indexed GameId, address indexed Player, uint256 indexed Amount);\n    event CashOutEvent(uint256 indexed GameId, address indexed Player, uint256 indexed Amount);\n    event BeforeCashOutEvent(uint256 indexed GameId, address indexed Player, uint256 indexed Amount);\n    event AfterCashOutEvent(address indexed Player);\n    \n    /**\n     @dev IsValidAddr\n     A modifier that checks if the user's address is valid.\n    */\n    modifier IsValidAddr() {\n        require(msg.sender != address(0x0), \"Error: Address invalid.\");\n        _;\n    }\n    \n    constructor () {\n        _rngNonce = 1;\n        _indexCounter = 1;\n        _owner = msg.sender;\n    }\n    \n    fallback () IsValidAddr external {\n        revert(\"Payer address inavailable.\");\n    }\n\n    receive () IsValidAddr external payable {\n        // Players must use NewGame function to pay\n        revert(\"Please start new game (NewGame function) to pay contract.\");\n    }\n    \n    /**\n     @dev NewGame\n     Starts and initializes a new game with a player using msg.sender's address.\n    */\n    function NewGame() external payable {\n        require(_map_playerToGame[msg.sender] == 0, \"Error: Player already in a game.\");\n        require(msg.value > _ethDepLimit_Low && msg.value <= _ethDepLimit_High, \"Error: Require 1000 Gwei < deposit < 10 Ether.\");\n\n        Game memory game;\n        game.Id = _indexCounter;\n        game.SafeBalance += msg.value;\n        game.OriginalBalance += msg.value;\n        game.Player = msg.sender;\n        \n        game.GameMsg = \"Contract Paid.\";\n        _indexCounter++;\n        _map_idToGame[game.Id] = game;\n        _map_playerToGame[msg.sender] = game.Id;\n\n        emit NewGameEvent(game.Id, game.Player, game.OriginalBalance);\n    }\n\n    /**\n     @dev GenerateRandomCard\n     Generates a random number between 0 and 51 which represents a card in the deck.\n    */\n    function GenerateRandomCard() private returns (uint8 randomNumber) {\n        _rngNonce *= 3;\n        randomNumber = uint8(uint256(keccak256(abi.encodePacked(blockhash(block.timestamp), _rngNonce))) % 52);\n\n        _rngNonce++;\n        \n        // reduce gas cost\n        if(_rngNonce > 20230516)\n            _rngNonce = randomNumber;\n    }\n\n    ////////// Core game functions //////////\n    /**\n     @dev DealCards\n     Deals first 2 cards and handle BlackJack, dealer doesn't have card 2 by now.\n     @param game Ongoing game ID.\n    */\n    function DealCards(Game storage game) private {\n        // Clear previous states\n        delete game.PlayerHand;\n        game.PlayerCardTotal = 0;\n        delete game.DealerHand;\n        game.DealerCardTotal = 0;\n        game.PlayerAce = 0;\n        game.DealerAce = 0;\n        \n        // Card 1\n        game.PlayerHand.push(GenerateRandomCard());\n        game.DealerHand.push(GenerateRandomCard());\n        // if Ace\n        if(game.PlayerHand[0]%13 == 0)\n            game.PlayerAce += 1;\n        if(game.DealerHand[0]%13 == 0) \n            game.DealerAce += 1;\n        \n        // Card 2 for player -- dealer gets card in his round only\n        game.PlayerHand.push(GenerateRandomCard());\n        if(game.PlayerHand[1]%13 == 0) { // if card 2 is Ace\n            game.PlayerAce += 1;\n        }\n        \n        // Card totals\n        game.PlayerCardTotal = cardValues[game.PlayerHand[0]%13] + cardValues[game.PlayerHand[1]%13];\n        game.DealerCardTotal = cardValues[game.DealerHand[0]%13];\n        if(game.PlayerCardTotal > 21 && game.PlayerAce > 0) {\n            game.PlayerCardTotal -= 10;\n            game.PlayerAce -= 1;\n        }\n        \n        // BlackJack!\n        if(game.PlayerCardTotal == 21) {\n            // Check standoff\n            game.DealerHand.push(GenerateRandomCard());\n            game.DealerCardTotal += cardValues[game.DealerHand[1]%13];\n            // Identify winner\n            if(game.DealerCardTotal == game.PlayerCardTotal) {\n                game.GameMsg = \"StandOff!\";\n                game.SafeBalance += game.PlayerBet; // Update balance: bet\n            } else {\n                game.GameMsg = \"BlackJack! Player Wins.\";\n                game.SafeBalance += ((game.PlayerBet * 2) + (game.PlayerBet / 2)); //update balance: bet * 2.5 = original bet * 2 + bet * 0.5\n            }\n            // End round since someone won\n            game.IsRoundInProgress = false;\n        } else {\n            game.GameMsg = \"Player's Turn.\";\n        }\n    }\n    \n    /**\n     @dev Hit\n     Called on player's turn: draw a card and check for hands.\n    */\n    function Hit() IsValidAddr external {\n        require(_map_playerToGame[msg.sender] != 0, \"Error: Game does not exists.\");\n        Game storage game = _map_idToGame[_map_playerToGame[msg.sender]];\n\n        require(game.IsRoundInProgress, \"Available on player's turn only.\");\n        game.PlayerHand.push(GenerateRandomCard());\n        // If Ace\n        if(game.PlayerHand[game.PlayerHand.length-1]%13 == 0) \n            game.PlayerAce += 1;\n\n        game.PlayerCardTotal += cardValues[game.PlayerHand[game.PlayerHand.length-1]%13];\n        if(game.PlayerCardTotal > 21 && game.PlayerAce < 1) { // Bust\n            game.GameMsg = \"Player Bust.\";\n            game.IsRoundInProgress = false;\n        } else {\n            if(game.PlayerCardTotal > 21) {\n                game.PlayerCardTotal -= 10;\n                game.PlayerAce -= 1;\n            }\n            game.GameMsg = \"Player's Turn.\";\n        }\n    }\n    \n    /**\n     @dev Stand\n     Called on player's turn: End player's turns and play dealer's hand.\n     Dealer draws cards until 17 or bust, then check winner.\n    */\n    function Stand() IsValidAddr public {\n        require(_map_playerToGame[msg.sender] != 0, \"Error: Game does not exists.\");\n        Game storage game = _map_idToGame[_map_playerToGame[msg.sender]];\n\n        require(game.IsRoundInProgress, \"Available on player's turn only.\");\n        // Show Dealer Card 2\n        game.DealerHand.push(GenerateRandomCard());\n        // Ace\n        if(game.DealerHand[1]%13 == 0)\n            game.DealerAce += 1;\n        // Update card Total\n        game.DealerCardTotal += cardValues[game.DealerHand[1]%13];\n        \n        // Dealer must Stand on all 17s\n        while(game.DealerCardTotal < 17) {\n            game.DealerHand.push(GenerateRandomCard());\n            // Ace\n            if(game.DealerHand[game.DealerHand.length-1]%13 == 0)\n                game.DealerAce += 1;\n\n            game.DealerCardTotal += cardValues[game.DealerHand[game.DealerHand.length-1]%13];\n        }\n\n        // check winner from here //        \n        if(game.DealerCardTotal > 21 && game.DealerAce < 1) {\n            game.GameMsg = \"Dealer Bust. Player Wins.\";\n            game.IsRoundInProgress = false;\n            game.SafeBalance += (game.PlayerBet * 2); // Update balance: bet * 2\n        } else if(game.DealerCardTotal > 21) {\n            game.DealerCardTotal -= 10;\n            game.DealerAce -= 1;\n        } else if(game.DealerCardTotal == 21) {\n            // check standoff\n            if(game.PlayerCardTotal == 21) {\n                game.GameMsg = \"StandOff!\";\n                game.IsRoundInProgress = false;\n                game.SafeBalance += (game.PlayerBet); // Update balance: bet\n            } else {\n                game.GameMsg = \"Dealer Wins.\";\n                game.IsRoundInProgress = false;\n            }\n        } else {\n            if(game.PlayerCardTotal < 21 && (21 - game.DealerCardTotal) == (21 - game.PlayerCardTotal)) {\n                game.GameMsg = \"StandOff!\";\n                game.IsRoundInProgress = false;\n                game.SafeBalance += game.PlayerBet; // Update balance: bet\n            } else if((21 - game.DealerCardTotal) < (21 - game.PlayerCardTotal)) {\n                game.GameMsg = \"Dealer Wins.\";\n                game.IsRoundInProgress = false;\n            } else {\n                game.GameMsg = \"Player Wins.\";\n                game.IsRoundInProgress = false;\n                game.SafeBalance += (game.PlayerBet * 2); // Update balance: bet * 2\n            }\n        }\n    }\n\n    /**\n     @dev PlaceBet\n     Begins a new game round that saves game states including balance, bet and number of games.\n     @param bet Requires 100 GWei < bet < 1 Ether to start a new round.\n    */\n    function PlaceBet(uint256 bet) IsValidAddr public {\n        require(_map_playerToGame[msg.sender] != 0, \"Error: Game does not exists.\");\n        Game storage game = _map_idToGame[_map_playerToGame[msg.sender]];\n\n        require(!game.IsRoundInProgress, \"Error: Round in progress.\");\n        require(bet >= _ethBetLimit_Low && bet <= _ethBetLimit_High, \"Error: Require 100 GWei < bet < 1 Ether.\");\n        require(bet > 0 && bet <= game.SafeBalance, \"Error: Insufficient funds.\");\n        game.SafeBalance -= bet; // Balance update: remove bet amount\n        game.PlayerBet = bet; // Update player bet amount\n        game.IsRoundInProgress = true; // Start this new round\n        game.GamesPlayed++; // Game counter updates\n        \n        DealCards(game);\n    }\n\n    ////////// Cash flow functions //////////\n    /**\n     @dev CashOut\n     Cash out function for player before or after a game round.\n    */\n    function CashOut() IsValidAddr external {\n        require(_map_playerToGame[msg.sender] != 0, \"Error: Game does not exists.\");\n        Game memory game = _map_idToGame[_map_playerToGame[msg.sender]];\n\n        require(!game.IsRoundInProgress, \"Available on new round only.\");\n        uint256 tempBalance = game.SafeBalance;\n        if(address(this).balance >= 0 && address(this).balance < game.SafeBalance)\n            tempBalance = address(this).balance;\n\n        assert(address(this).balance >= tempBalance);\n        BeforeValueTransfer(msg.sender);\n        payable(msg.sender).transfer(tempBalance);\n        AfterValueTransfer(msg.sender);\n        assert(_map_playerToGame[msg.sender] == 0);\n\n        emit CashOutEvent(game.Id, msg.sender, tempBalance);\n    }\n\n    /**\n     @dev BeforeValueTransfer\n     @param playerAddress Player address to transfer value to.\n    */\n    function BeforeValueTransfer(address playerAddress) private {\n        // Update before transfer to prevent re-entrancy.\n\n        uint256 gameId = _map_idToGame[_map_playerToGame[playerAddress]].Id;\n        uint256 tempBalance = _map_idToGame[_map_playerToGame[playerAddress]].SafeBalance;\n\n        _map_playerToGame[playerAddress] = 0;\n        delete _map_idToGame[_map_playerToGame[playerAddress]];\n\n        emit BeforeCashOutEvent(gameId, playerAddress, tempBalance);\n    }\n\n    /**\n     @dev AfterValueTransfer\n     @param playerAddress Player address to transfer value to.\n    */\n    function AfterValueTransfer(address playerAddress) private {\n        // Ensure transfer happened as expected. If not, update again.\n\n        if(_map_playerToGame[playerAddress] != 0 || _map_idToGame[_map_playerToGame[playerAddress]].SafeBalance != 0) {\n            _map_playerToGame[playerAddress] = 0;\n            delete _map_idToGame[_map_playerToGame[playerAddress]];\n        }\n\n        emit AfterCashOutEvent(playerAddress);\n    }\n\n    ////////// Misc functions //////////\n    /**\n     @dev GetGame - helper function to get game info for msg.sender.\n    */\n    function GetGame() external view returns (Game memory game) {\n        game = _map_idToGame[_map_playerToGame[msg.sender]];\n    }\n    \n    /**\n     @dev ShowTable - helper function to display game info for msg.sender.\n    */\n    function ShowTable() external view returns (\n            string memory GameMessage,    uint8[] memory PlayerHand, uint8  PlayerCardTotal, uint8[] memory DealerHand,\n            uint8  DealerCardTotal, uint256  PlayerBet,   uint256  BetPot) {\n\n        Game memory game = _map_idToGame[_map_playerToGame[msg.sender]];\n        \n        GameMessage = game.GameMsg;\n        PlayerHand = game.PlayerHand;\n        PlayerCardTotal = game.PlayerCardTotal;\n        DealerHand = game.DealerHand;\n        DealerCardTotal = game.DealerCardTotal;\n        PlayerBet = game.PlayerBet;\n        BetPot = game.SafeBalance;\n    }\n}",
  "sourcePath": "/Users/khsjds/Library/Mobile Documents/com~apple~CloudDocs/Documents/111-2C/BC/project_BlackJack/contracts/BlackJack.sol",
  "compiler": {
    "name": "solc",
    "version": "0.8.12+commit.f00d7308.Emscripten.clang"
  },
  "schemaVersion": "3.4.14",
  "updatedAt": "2023-06-04T18:15:54.947Z",
  "networkType": "ethereum",
  "devdoc": {
    "kind": "dev",
    "methods": {
      "CashOut()": {
        "details": "CashOut Cash out function for player before or after a game round."
      },
      "GetGame()": {
        "details": "GetGame - helper function to get game info for msg.sender."
      },
      "Hit()": {
        "details": "Hit Called on player's turn: draw a card and check for hands."
      },
      "NewGame()": {
        "details": "NewGame Starts and initializes a new game with a player using msg.sender's address."
      },
      "PlaceBet(uint256)": {
        "details": "PlaceBet Begins a new game round that saves game states including balance, bet and number of games.",
        "params": {
          "bet": "Requires 100 GWei < bet < 1 Ether to start a new round."
        }
      },
      "ShowTable()": {
        "details": "ShowTable - helper function to display game info for msg.sender."
      },
      "Stand()": {
        "details": "Stand Called on player's turn: End player's turns and play dealer's hand. Dealer draws cards until 17 or bust, then check winner."
      }
    },
    "title": "BlackJack A Blackjack game of smart contract, deploying to the blockchain.",
    "version": 1
  },
  "userdoc": {
    "events": {
      "NewGameEvent(uint256,address,uint256)": {
        "notice": "Events that Log important states (start game, and cash out/transfer)"
      }
    },
    "kind": "user",
    "methods": {},
    "version": 1
  }
}